{
  "contractName": "crowdFunding",
  "abi": [
    {
      "constant": true,
      "inputs": [
        {
          "internalType": "uint256",
          "name": "",
          "type": "uint256"
        }
      ],
      "name": "Projects",
      "outputs": [
        {
          "internalType": "uint256",
          "name": "goal",
          "type": "uint256"
        },
        {
          "internalType": "string",
          "name": "title",
          "type": "string"
        },
        {
          "internalType": "address payable",
          "name": "creator",
          "type": "address"
        },
        {
          "internalType": "uint256",
          "name": "totalFunding",
          "type": "uint256"
        },
        {
          "internalType": "uint256",
          "name": "contributionsCount",
          "type": "uint256"
        },
        {
          "internalType": "uint256",
          "name": "contributorsCount",
          "type": "uint256"
        }
      ],
      "payable": false,
      "stateMutability": "view",
      "type": "function"
    },
    {
      "constant": true,
      "inputs": [
        {
          "internalType": "address",
          "name": "",
          "type": "address"
        }
      ],
      "name": "contributors",
      "outputs": [
        {
          "internalType": "uint256",
          "name": "",
          "type": "uint256"
        }
      ],
      "payable": false,
      "stateMutability": "view",
      "type": "function"
    },
    {
      "constant": true,
      "inputs": [],
      "name": "index",
      "outputs": [
        {
          "internalType": "uint256",
          "name": "",
          "type": "uint256"
        }
      ],
      "payable": false,
      "stateMutability": "view",
      "type": "function"
    },
    {
      "constant": false,
      "inputs": [
        {
          "internalType": "uint256",
          "name": "_fundingGoal",
          "type": "uint256"
        },
        {
          "internalType": "string",
          "name": "_title",
          "type": "string"
        }
      ],
      "name": "Project",
      "outputs": [],
      "payable": false,
      "stateMutability": "nonpayable",
      "type": "function"
    },
    {
      "constant": true,
      "inputs": [
        {
          "internalType": "uint256",
          "name": "_index",
          "type": "uint256"
        }
      ],
      "name": "getProject",
      "outputs": [
        {
          "internalType": "string",
          "name": "",
          "type": "string"
        },
        {
          "internalType": "uint256",
          "name": "",
          "type": "uint256"
        },
        {
          "internalType": "address",
          "name": "",
          "type": "address"
        },
        {
          "internalType": "uint256",
          "name": "",
          "type": "uint256"
        },
        {
          "internalType": "uint256",
          "name": "",
          "type": "uint256"
        },
        {
          "internalType": "uint256",
          "name": "",
          "type": "uint256"
        }
      ],
      "payable": false,
      "stateMutability": "view",
      "type": "function"
    },
    {
      "constant": false,
      "inputs": [
        {
          "internalType": "uint256",
          "name": "_index",
          "type": "uint256"
        }
      ],
      "name": "fund",
      "outputs": [
        {
          "internalType": "string",
          "name": "_result",
          "type": "string"
        }
      ],
      "payable": true,
      "stateMutability": "payable",
      "type": "function"
    },
    {
      "constant": true,
      "inputs": [],
      "name": "viewProjects",
      "outputs": [
        {
          "internalType": "string[]",
          "name": "",
          "type": "string[]"
        }
      ],
      "payable": false,
      "stateMutability": "view",
      "type": "function"
    }
  ],
  "bytecode": "0x6080604052600060035534801561001557600080fd5b506111f5806100256000396000f3fe6080604052600436106100705760003560e01c80632986c0e51161004e5780632986c0e51461011d578063310f941114610148578063ca1d209d14610173578063f0f3f2c8146101a357610070565b8063079dc539146100755780631f6d49421461009e57806321b2416c146100db575b600080fd5b34801561008157600080fd5b5061009c60048036036100979190810190610ad6565b6101e5565b005b3480156100aa57600080fd5b506100c560048036036100c09190810190610a84565b610378565b6040516100d29190610f4f565b60405180910390f35b3480156100e757600080fd5b5061010260048036036100fd9190810190610aad565b610390565b60405161011496959493929190610f6a565b60405180910390f35b34801561012957600080fd5b50610132610484565b60405161013f9190610f4f565b60405180910390f35b34801561015457600080fd5b5061015d61048a565b60405161016a9190610e23565b60405180910390f35b61018d60048036036101889190810190610aad565b610573565b60405161019a9190610e45565b60405180910390f35b3480156101af57600080fd5b506101ca60048036036101c59190810190610aad565b6107fa565b6040516101dc96959493929190610e67565b60405180910390f35b60008211610228576040517f08c379a000000000000000000000000000000000000000000000000000000000815260040161021f90610f2f565b60405180910390fd5b8160016000600354815260200190815260200160002060000181905550806001600060035481526020019081526020016000206001019080519060200190610271929190610961565b503360016000600354815260200190815260200160002060020160006101000a81548173ffffffffffffffffffffffffffffffffffffffff021916908373ffffffffffffffffffffffffffffffffffffffff1602179055506000600160006003548152602001908152602001600020600301819055506000600160006003548152602001908152602001600020600401819055506000600160006003548152602001908152602001600020600501819055506002819080600181540180825580915050906001820390600052602060002001600090919290919091509080519060200190610360929190610961565b50506003600081548092919060010191905055505050565b60006020528060005260406000206000915090505481565b6001602052806000526040600020600091509050806000015490806001018054600181600116156101000203166002900480601f0160208091040260200160405190810160405280929190818152602001828054600181600116156101000203166002900480156104425780601f1061041757610100808354040283529160200191610442565b820191906000526020600020905b81548152906001019060200180831161042557829003601f168201915b5050505050908060020160009054906101000a900473ffffffffffffffffffffffffffffffffffffffff16908060030154908060040154908060050154905086565b60035481565b60606002805480602002602001604051908101604052809291908181526020016000905b8282101561056a578382906000526020600020018054600181600116156101000203166002900480601f0160208091040260200160405190810160405280929190818152602001828054600181600116156101000203166002900480156105565780601f1061052b57610100808354040283529160200191610556565b820191906000526020600020905b81548152906001019060200180831161053957829003601f168201915b5050505050815260200190600101906104ae565b50505050905090565b6060600034116105b8576040517f08c379a00000000000000000000000000000000000000000000000000000000081526004016105af90610eef565b60405180910390fd5b6001600083815260200190815260200160002060000154600160008481526020019081526020016000206003015410610626576040517f08c379a000000000000000000000000000000000000000000000000000000000815260040161061d90610ecf565b60405180910390fd5b6001600083815260200190815260200160002060020160009054906101000a900473ffffffffffffffffffffffffffffffffffffffff1673ffffffffffffffffffffffffffffffffffffffff166108fc349081150290604051600060405180830381858888f193505050506106d0576040517f08c379a00000000000000000000000000000000000000000000000000000000081526004016106c790610f0f565b60405180910390fd5b60008060003373ffffffffffffffffffffffffffffffffffffffff1673ffffffffffffffffffffffffffffffffffffffff168152602001908152602001600020549050346000803373ffffffffffffffffffffffffffffffffffffffff1673ffffffffffffffffffffffffffffffffffffffff16815260200190815260200160002060008282540192505081905550346001600085815260200190815260200160002060030160008282540192505081905550600160008481526020019081526020016000206004016000815480929190600101919050555060008114156107d95760016000848152602001908152602001600020600501600081548092919060010191905055505b60405180608001604052806047815260200161116c60479139915050919050565b60606000806000806000600160008881526020019081526020016000206001016001600089815260200190815260200160002060000154600160008a815260200190815260200160002060020160009054906101000a900473ffffffffffffffffffffffffffffffffffffffff16600160008b815260200190815260200160002060030154600160008c815260200190815260200160002060040154600160008d815260200190815260200160002060050154858054600181600116156101000203166002900480601f0160208091040260200160405190810160405280929190818152602001828054600181600116156101000203166002900480156109425780601f1061091757610100808354040283529160200191610942565b820191906000526020600020905b81548152906001019060200180831161092557829003601f168201915b5050505050955083935095509550955095509550955091939550919395565b828054600181600116156101000203166002900490600052602060002090601f016020900481019282601f106109a257805160ff19168380011785556109d0565b828001600101855582156109d0579182015b828111156109cf5782518255916020019190600101906109b4565b5b5090506109dd91906109e1565b5090565b610a0391905b808211156109ff5760008160009055506001016109e7565b5090565b90565b600081359050610a158161113d565b92915050565b600082601f830112610a2c57600080fd5b8135610a3f610a3a82610fff565b610fd2565b91508082526020830160208301858383011115610a5b57600080fd5b610a668382846110ea565b50505092915050565b600081359050610a7e81611154565b92915050565b600060208284031215610a9657600080fd5b6000610aa484828501610a06565b91505092915050565b600060208284031215610abf57600080fd5b6000610acd84828501610a6f565b91505092915050565b60008060408385031215610ae957600080fd5b6000610af785828601610a6f565b925050602083013567ffffffffffffffff811115610b1457600080fd5b610b2085828601610a1b565b9150509250929050565b6000610b368383610c0a565b905092915050565b610b47816110ae565b82525050565b610b568161109c565b82525050565b6000610b678261103b565b610b718185611069565b935083602082028501610b838561102b565b8060005b85811015610bbf5784840389528151610ba08582610b2a565b9450610bab8361105c565b925060208a01995050600181019050610b87565b50829750879550505050505092915050565b6000610bdc82611051565b610be6818561108b565b9350610bf68185602086016110f9565b610bff8161112c565b840191505092915050565b6000610c1582611046565b610c1f818561107a565b9350610c2f8185602086016110f9565b610c388161112c565b840191505092915050565b6000610c4e82611046565b610c58818561108b565b9350610c688185602086016110f9565b610c718161112c565b840191505092915050565b6000610c8960428361108b565b91507f536f7272792c2074686520676f616c2068617320616c7265616479206265656e60008301527f20726561636865642c205468616e6b7320666f7220796f7572206566666f727460208301527f732e0000000000000000000000000000000000000000000000000000000000006040830152606082019050919050565b6000610d1560308361108b565b91507f46756e64696e6720636f6e747269627574696f6e73206d75737420626520677260008301527f6561746572207468616e203020776569000000000000000000000000000000006020830152604082019050919050565b6000610d7b600e8361108b565b91507f5061796d656e74204661696c65640000000000000000000000000000000000006000830152602082019050919050565b6000610dbb602b8361108b565b91507f50726f6a6563742066756e64696e6720676f616c206d7573742062652067726560008301527f61746572207468616e20300000000000000000000000000000000000000000006020830152604082019050919050565b610e1d816110e0565b82525050565b60006020820190508181036000830152610e3d8184610b5c565b905092915050565b60006020820190508181036000830152610e5f8184610bd1565b905092915050565b600060c0820190508181036000830152610e818189610bd1565b9050610e906020830188610e14565b610e9d6040830187610b4d565b610eaa6060830186610e14565b610eb76080830185610e14565b610ec460a0830184610e14565b979650505050505050565b60006020820190508181036000830152610ee881610c7c565b9050919050565b60006020820190508181036000830152610f0881610d08565b9050919050565b60006020820190508181036000830152610f2881610d6e565b9050919050565b60006020820190508181036000830152610f4881610dae565b9050919050565b6000602082019050610f646000830184610e14565b92915050565b600060c082019050610f7f6000830189610e14565b8181036020830152610f918188610c43565b9050610fa06040830187610b3e565b610fad6060830186610e14565b610fba6080830185610e14565b610fc760a0830184610e14565b979650505050505050565b6000604051905081810181811067ffffffffffffffff82111715610ff557600080fd5b8060405250919050565b600067ffffffffffffffff82111561101657600080fd5b601f19601f8301169050602081019050919050565b6000819050602082019050919050565b600081519050919050565b600081519050919050565b600081519050919050565b6000602082019050919050565b600082825260208201905092915050565b600082825260208201905092915050565b600082825260208201905092915050565b60006110a7826110c0565b9050919050565b60006110b9826110c0565b9050919050565b600073ffffffffffffffffffffffffffffffffffffffff82169050919050565b6000819050919050565b82818337600083830152505050565b60005b838110156111175780820151818401526020810190506110fc565b83811115611126576000848401525b50505050565b6000601f19601f8301169050919050565b6111468161109c565b811461115157600080fd5b50565b61115d816110e0565b811461116857600080fd5b5056fe5468616e6b7320666f7220796f757220636f6e747269627574696f6e2c20796f757220636f6e7472697574696f6e206973207375636365737366756c6c7920726563697665642ea365627a7a723158201a964ce4626b898b5ac251c6f798ef9287ea6ef266c1afd377963887afe2bf4d6c6578706572696d656e74616cf564736f6c63430005100040",
  "source": "pragma solidity ^0.5.0;\r\npragma experimental ABIEncoderV2;\r\n\r\ncontract crowdFunding {\r\n\r\n    struct Properties {\r\n        uint goal;\r\n        string title;\r\n        address payable creator;\r\n        uint totalFunding;\r\n        uint contributionsCount;\r\n        uint contributorsCount;\r\n    }\r\n\r\n    mapping (address => uint) public contributors;\r\n    mapping (uint => Properties) public Projects;\r\n    string[] projectNames;\r\n    uint public index=0;\r\n\r\n    function Project(uint _fundingGoal,string memory _title) public {\r\n\r\n        require(_fundingGoal > 0, \"Project funding goal must be greater than 0\");\r\n        \r\n        Projects[index].goal =_fundingGoal;\r\n        Projects[index].title = _title;\r\n        Projects[index].creator = msg.sender;\r\n        Projects[index].totalFunding = 0;\r\n        Projects[index].contributionsCount = 0;\r\n        Projects[index].contributorsCount = 0;\r\n        \r\n        projectNames.push(_title);\r\n        index++;\r\n    }\r\n\r\n   \r\n    function getProject(uint _index) public view returns (string memory, uint, address, uint, uint, uint) {\r\n        return (Projects[_index].title,\r\n                Projects[_index].goal,\r\n                Projects[_index].creator,\r\n                Projects[_index].totalFunding,\r\n                Projects[_index].contributionsCount,\r\n                Projects[_index].contributorsCount);\r\n                //yha address(this) return kren ki requirment nhilg rhi\r\n    }\r\n\r\n    function fund(uint _index) public payable returns (string memory _result) \r\n    {\r\n\r\n        require(msg.value > 0 ,\"Funding contributions must be greater than 0 wei\" );\r\n\r\n        if (Projects[_index].totalFunding >= Projects[_index].goal) \r\n        {\r\n           revert(\"Sorry, the goal has already been reached, Thanks for your efforts.\");\r\n        }\r\n        else\r\n        {\r\n            require(Projects[_index].creator.send(msg.value), \"Payment Failed\");\r\n            \r\n            uint prevContributionBalance = contributors[msg.sender];\r\n\r\n            contributors[msg.sender] += msg.value;\r\n    \r\n            Projects[_index].totalFunding += msg.value;\r\n            Projects[_index]. contributionsCount++;\r\n            \r\n            if (prevContributionBalance == 0) {\r\n                Projects[_index].contributorsCount++;\r\n            }\r\n\r\n        return(\"Thanks for your contribution, your contriution is successfully recived.\");\r\n        }\r\n\r\n    }\r\n    function viewProjects() public view returns(string[] memory)\r\n    {\r\n        return(projectNames);\r\n    }\r\n\r\n}",
  "sourcePath": "C:/Users/lenovo/blockChain_Project/contracts/crowdFunding.sol",
  "compiler": {
    "name": "solc",
    "version": "0.5.16+commit.9c3226ce.Emscripten.clang"
  },
  "schemaVersion": "3.3.1",
  "updatedAt": "2020-12-06T16:05:01.448Z",
  "networkType": "ethereum",
  "devdoc": {
    "methods": {}
  },
  "userdoc": {
    "methods": {}
  }
}